:020000040000fa
:080000000013040000000000e1
:020000040000fa
:1020000002000000e813040000000000e8130400d0
:1020100000000000e813040000000000e8130400c2
:1020200000000000e813040000000000e8130400b2
:1020300000000000e813040000000000e8130400a2
:102040000000000000e904000000000014e90400a2
:1020500000000000e81304000000000060e7040036
:1020600000000000e813040000000000e813040072
:1020700000000000e813040000000000e813040062
:102080000000000094e7040000000000e8130400d2
:1020900000000000e81304000000000018e804003d
:1020a00000000000e813040000000000e813040032
:1020b00000000000e813040000000000e813040022
:1020c00000000000e813040000000000e813040012
:1020d00000000000e813040000000000e813040002
:1020e00000000000e813040000000000e8130400f2
:1020f00000000000e813040000000000e8130400e2
:1021000000000000e813040000000000e8130400d1
:1021100000000000e813040000000000cee7040007
:1021200000000000e4e7040000000000e8130400e1
:1021300000000000e813040000000000e8130400a1
:1021400000000000e813040000000000e813040091
:1021500000000000e813040000000000e813040081
:1021600000000000e813040000000000e813040071
:1021700000000000e813040000000000e813040061
:1021800000000000e813040000000000e813040051
:1021900000000000e813040000000000e813040041
:1021a00000000000e813040000000000e813040031
:1021b00000000000e813040000000000e813040021
:1021c00000000000e813040000000000e813040011
:1021d00000000000e813040000000000e813040001
:1021e00000000000e813040000000000e8130400f1
:1021f00000000000e813040000000000e8130400e1
:1022000000000000e813040000000000e8130400d0
:1022100000000000e813040000000000e8130400c0
:1022200000000000e813040000000000e8130400b0
:1022300000000000e813040000000000e8130400a0
:1022400000000000e813040000000000e813040090
:1022500000000000e813040000000000e813040080
:1022600000000000e813040000000000e813040070
:1022700000000000e813040000000000e813040060
:1022800000000000e813040000000000e813040050
:1022900000000000e813040000000000e813040040
:1022a00000000000e813040000000000e813040030
:1022b00000000000e813040000000000e813040020
:1022c00000000000e813040000000000e813040010
:1022d00000000000e813040000000000e813040000
:1022e00000000000e813040000000000e8130400f0
:1022f00000000000e813040000000000e8130400e0
:1023000000000000e813040000000000e8130400cf
:1023100000000000e813040000000000e8130400bf
:1023200000000000e813040000000000e8130400af
:1023300000000000e813040000000000e81304009f
:1023400000000000e813040000000000e81304008f
:1023500000000000e813040000000000e81304007f
:1023600000000000e813040000000000e81304006f
:1023700000000000e813040000000000e81304005f
:1023800000000000e813040000000000e81304004f
:1023900000000000e813040000000000e81304003f
:1023a00000000000e813040000000000e81304002f
:1023b00000000000e813040000000000e81304001f
:1023c00000000000e813040000000000e81304000f
:1023d00000000000e813040000000000e8130400ff
:1023e00000000000e813040000000000e8130400ef
:1023f00000000000e813040000000000e8130400df
:1024000000000000e813040000000000e8130400ce
:1024100000000000e813040000000000e8130400be
:1024200000000000e813040000000000e8130400ae
:1024300000000000e813040000000000e81304009e
:1024400000000000e813040000000000e81304008e
:1024500000000000e813040000000000e81304007e
:1024600000000000e813040000000000e81304006e
:1024700000000000e813040000000000e81304005e
:1024800000000000e813040000000000e81304004e
:1024900000000000e813040000000000e81304003e
:1024a00000000000e813040000000000e81304002e
:1024b00000000000e813040000000000e81304001e
:1024c00000000000e813040000000000e81304000e
:1024d00000000000e813040000000000e8130400fe
:1024e00000000000e813040000000000e8130400ee
:0c24f00000000000e813040000000000e1
:020000040000fa
:10260000af9d22000eff27000e0188000000000091
:1026100000012000200288000c000700c0f02e00fe
:10262000010020001d000700000020000000e00065
:1026300002003200000002000000000002e602007a
:10264000000000000040da000000fe0040bc220054
:102650000000e0000200320000202000900188000d
:1026600000000600f03fb1000180b1000600350017
:10267000ee03090000000000403fb1000180b100fe
:10268000fbff3d001000b000203fb000020035000d
:10269000008009000000000000000600a102880080
:1026a000800078000000eb001a003700e280400054
:1026b00054a0b4009101ba00e280400054a0b400dc
:1026c0009102ba00e280400054a0b4000002eb0086
:1026d000472bde00f507b200a6018800602ce10060
:1026e00008003a000049eb000201e800020039004e
:1026f0003420ec0002f0a0008301e900f9ff3e0065
:10270000040037006128e100010032000082eb0084
:10271000040007001101ba000200e000e3ff3a00e4
:102720000000060004d0a300e20f49001c0039009d
:10273000810278003549ba000201e8000200390040
:102740003420ec0002f0a0008301e9000f00320009
:102750002549ba000201e800020039003420ec00eb
:1027600002f0a0008301e900080032000400e0004c
:102770000600320015c9ba000201e8000200390063
:102780003420ec0002f0a0008301e9008180e80021
:1027900054a0b4000300e000e2ff3a00000006008d
:1027a0009102ba00055978008301e900f7ff320071
:1027b000c82ade00055978008301e900f3ff3200e2
:1027c0000400e000f1ff320011d9ba00eeff37003b
:1027d0000040da000000fe000000fa0000c0da004d
:1027e0000080fa00000006000a00fa00e20f500024
:1027f00022003e00c44e8100e10f5200060032006c
:1028000087232000462320002423200005232000c6
:10281000e08f530004003a00872220004622200067
:10282000242220000522200000002800150060005e
:1028300003003a00800b780007002800958a730097
:10284000054020009482620001003a0014a0a0001c
:102850008202780006003700940378000710b20067
:10286000fdff3200b103fb00070b78008502e90091
:10287000e08f5200f8ff3a000800370034002000d3
:10288000040f78001007980021079800320798007d
:102890000e007800d0ff07003e0190000200780093
:1028a0000080fa00000006006022b8000602200046
:1028b0000000d0008180d2000482d2008582d20044
:1028c0000000a0000202520083825a00030031007f
:1028d0000202420083824a000000a1000603e900d0
:1028e000f3ff3a0000000600efff07000400be00ff
:1028f000000006006011b8001d0237000001be0094
:102900004a0207000470a70003f0a10003f8a30027
:1029100013003a006509b1001000320009003500cb
:102920006928e100020035000100280000000500d0
:1029300000004000818048008502e900fcff3a0069
:1029400000000600f88f4200050035008100d1002c
:102950000080d3008502e800fcff3a00000006007a
:102960008000eb00000005004f89de008201780046
:1029700043023700889fbe008a9fbe008c1f7800ec
:102980004f0207005602330003866c006450e100da
:102990002e0032006420e100330032006150e1007b
:1029a0002f0032006120e1003100320085855500a2
:1029b000eb07b000090020000804200005003700e4
:1029c0000804440089844c000a00310006034300d7
:1029d00087834b000001530081815b00f8ff3300c7
:1029e0000203be000800a0000804440089844c00d3
:1029f000f6ff3900c639dd008301730001003200a3
:102a0000130020008904d1000884d3000998a30092
:102a1000050032000800a7000300a0008904d100cf
:102a20000884d3008b05e8008904d1000884d30012
:102a30000001eb000281d2003902070001f0a10081
:102a40000cf0a70001f0a0002e0237006420e10086
:102a5000300232000801be000200be00f7ff37005e
:102a60006120e1002b0232006000b800f3ff370064
:102a70000000200001f82700f0ff370014002000bc
:102a80004d023700040020004b02370003f0a20083
:102a9000889fbe008a9fbe008c1f78000802070036
:102aa0000f0233006450e1004f0032006420e10067
:102ab0005200320003826c0007003b000905d00081
:102ac0000306d000820f54000c065d00020039009e
:102ad00002003200890178000306780085825500e3
:102ae00004003d000003fd008103fd008502ea00b3
:102af0008b854200840f720002003b0060001000d2
:102b0000e08018006011b8000005eb007a28e100b1
:102b10000a00390006007800c75ddd00f707b20043
:102b2000878075002d003700828171000a017800ce
:102b3000610560008180d1000080d3008502e9003a
:102b4000f9ff3b00060440008784480002003b0078
:102b500060041400e0841c000988a3000700320010
:102b60008a81710082817100610164008904d10051
:102b70000884d3008b05e800170037000978a3000c
:102b800013003a000b00e000130034008b05e9004d
:102b90000804440089844c000a4474000978a300a6
:102ba0000d003a000b00e000070034008b05e9003f
:102bb0000804440089844c0001003a000b00200006
:102bc0000978a300f7ff32000001eb000200370094
:102bd000828171000a017800d10107000cf0a70082
:102be00001f0a000c70137006420e10002003a00b4
:102bf000838f6c00c70133000801be000200be00d5
:102c0000c0013700889fbe008a9fbe008c1f7800dd
:102c1000ab010700b201330003866c006450e10091
:102c2000240032006420e100270032006150e100fe
:102c3000220032006120e100210032008b85420039
:102c4000eb07b1000134b800003ab80008044200b4
:102c500089844a00013ab8000030b80088804000fa
:102c600009014a0004003300000040008180480050
:102c7000020149008b05e900c909dd0083017000ec
:102c80000100320013002000c814de004814dd00eb
:102c90004709de001200b200c808de000884700098
:102ca0009f01070001f0a1000cf0a70001f0a000b7
:102cb000940137006120e100960132000801be0056
:102cc0000200be00f7ff37006150e100fcff3a0050
:102cd000900137000001eb00d20137000001be0077
:102ce000520107000470a70003f0a1006509b100bc
:102cf000160032000d0035006828e100060035009e
:102d0000f0ff2f00f1ff27000300e00013003b005d
:102d100001002800000005000000400081804800fc
:102d20008502e900fcff3a0008003700f88f4200f6
:102d300002003c008000eb00000005008100d10093
:102d40000080d3008502e800fcff3a000300e000a9
:102d500002003b0060001000e08018000000060048
:102d6000f4ff2f00940137000000fa00889fbe0096
:102d70008a9fbe003004be002005be00040444004b
:102d800085844c0006054d0087854d000898be00df
:102d90000a90be000440e10005c8e10006d0e10051
:102da00007d8e10002003100680040001008e80088
:102db0004f05be004f04be000080fa000000060070
:102dc0001000fa00889fbe008a9fbe000605be0064
:102dd0000404be003002be002003be00049fbe00fb
:102de0000697be000802520089825a000a035b005f
:102df0008b835b004407980055079800660798008e
:102e0000770798000498be000698be0011002000c5
:102e10003e02be002e03be008f00070001003900f5
:102e20008000eb00108810004f05be004f04be006c
:102e30000080fa00000006001400fa00889fbe001f
:102e40008a9fbe008c9fbe00bf0007000605be0023
:102e50000404be000006eb004c0798003c079800f5
:102e60002c0798001c0798000c0f78000d04200018
:102e70004e039000be029000860343002e02900095
:102e8000e00f530003003d0078000700b6ff070085
:102e90000200370075000700c9ff0700ce0290004e
:102ea000150f9800e08f520009003500ab000700b5
:102eb00014002000050020006033b80000007200fc
:102ec0008180720002017300838173009e000700fd
:102ed0000c06e8008d0f5600e5ff3a001e0a900030
:102ee000e00f520004003d000802be000a03be00cd
:102ef0000e0078009cff07004eba9700e00f5200ca
:102f000006003a003e04be002e05be005807980099
:102f1000690798007a0798000b0f98008f00070048
:102f20004f06be004f05be004f04be000080fa00f1
:102f3000000006000000fa00881f7800180020003a
:102f4000881f7800bcff07008f87e9004f047800d6
:102f50000080fa00000006000000fa00801feb006d
:102f6000b5ff07008f87e9000080fa000000060027
:102f70000000fa00889fbe008a9fbe005a0007002a
:102f800007003d005d0007001800200062000700f8
:102f900008003d00290007000004eb000500370091
:102fa0000004eb005c00070002003d002300070066
:102fb00018002000dfff0700e00f5400010032007e
:102fc0005a0007004f05be004f04be000080fa0003
:102fd000000006000000fa00889fbe008a9fbe0025
:102fe0008c1f78004000070005003d0043000700eb
:102ff0001c0020001800070007003d0005003700f6
:103000000006eb004400070003003d006044b800e8
:103010006055b8000b000700cfff0700e00f560017
:1030200001003200410007004f0678004f05be0046
:103030004f04be000080fa00000006006044b800a3
:103040006055b8000402540085825c0006035d00f0
:1030500087835d00000006000820e10009a8e10068
:103060000ab0e1000bb8e100000006004f2bde00c3
:1030700087037300470798004f23de0085824200d4
:1030800085027300350798009e0290004f2bde00ea
:103090000402420004027300240798001e02780014
:1030a0004f23de00858242008502730015079800d9
:1030b0002a0007004f18de0004024200000f7200d1
:1030c00026000700000040008180480002014900fe
:1030d000838149001c0007000802be000a03be00ed
:1030e0000e00780000000600e00f5000e08f58004e
:1030f000e00f5900e08f5900000006006044b8005e
:103100006055b8000000540081805c0002015d0041
:1031100083815d0000000600e00f5200e08f5a003e
:10312000e00f5b00e08f5b00000006006022b8004b
:103130006033b8000000520081805a0002015b0039
:1031400083815b000000060050079800610798002b
:1031500072079800030f9800000006005e009000c0
:10316000ee0090007e0190008e09900000000600a5
:10317000889fbe008a9fbe0000827000040271001a
:1031800004827100260032000004be000200be006e
:103190006011b8006b092000950220000182cf0069
:1031a0000a0039000541b1000082cf000700390054
:1031b0000541b1000982cf00040039000541b1008a
:1031c0000882cf00010039000541b10005425200dc
:1031d000120032000a003b0082817100610164002c
:1031e0008100d1000080d3008984d3000884d300fb
:1031f0008b05e8000442e800f7ff3a0007003700bb
:103200000804440089844c00000048008180480084
:103210008b05e9000442e900f9ff3a00400007008d
:103220004f05be004f04be0000000600c70ade00c6
:10323000f107b200f50fb20008003200e1cf420002
:10324000020032000170a00024000500810f700010
:10325000010032000408050044000500810f7000e1
:1032600002003a00140005008502e9000000400059
:1032700081c04800fcff3b000170a0002400050055
:10328000881f7800030478000300e00007003d0079
:1032900060001000e080180060011900e081190052
:1032a00002003b0001f02d0003003700b0ff0700d3
:1032b00008f0a70001f0a0004f047800000006000d
:1032c0000004be00d9ff07000003be000405be00d5
:1032d0000200be00d5ff0700844f75000000060005
:1032e0000200be006450e100050036006420e100e9
:1032f000020036000968a30001003a000800be0081
:103300000160a0004f0678004f05be004f04be00cc
:1033100000000600f0ff2f00f1ff2700f9ff370043
:1033200081002000618055000b003d000b00200053
:1033300061fe2f000100e1001d0034008281710058
:10334000610164008904d1000884d3000000e80012
:10335000faff3a0071002000610064000300700071
:10336000020060000900320061044400e0844c0067
:103370000988a500050032008b05e8006808e10017
:1033800002003a008904d1000884d300f20f200023
:103390000258e10005003d00c75ddd00f907b200fd
:1033a0008980750008007800000006000bf82700ef
:1033b0008b00780000000500889fbe008a9fbe0039
:1033c000841f7800beff07004f0078001100330013
:1033d000f0ff2f00838f6c0006003b0004056500a2
:1033e0000a00a7000800370009f0a600100020001e
:1033f00008003700820f5400838f5c0003003900ff
:103400001000200001003e000000200009f0a7008d
:103410000000ea004f05be004f04be000000e000bf
:1034200000000600889fbe008a9fbe008c9fbe00e1
:10343000820578000004be007cff07000800be0083
:103440006420e1000700390002003a00f1ff270084
:10345000f0ff2f000160a0001202200002c78800c8
:10346000550037006120e10003003a000b00a7007f
:1034700001f823005000370001f0a10002002100f4
:10348000936424007dfd07000800be0004003500a1
:10349000b2fd2000930c24004b0007000004be0086
:1034a0000005eb000b00a6004f0dde0001f0a100af
:1034b0000004be0032982f0023ea2300d1fd07004c
:1034c0000001eb0003f023000b00a70003f823002a
:1034d0006ffd070001fe07000000a7000a00a20020
:1034e00021fd07000b00e000030032000200200075
:1034f00003f0230065fd070001f0a2000006be00f6
:103500000200200093042400befd07000801be0055
:103510005ffd0700809fbe000c00be0022a22a00b3
:10352000d3a72300b7fd07004f01be0058fd0700d9
:103530000004be0001f0a100020020000398230057
:103540004efd07000800be00190035000001be0056
:10355000acfd07000006be00b2c52900e3622300ef
:10356000a8fd070022222b00f3942b0048fd070042
:103570000c01be00a3fd0700e273280083c02300f6
:1035800043fd07000c01be009efd070042aa2a0071
:10359000a3e22b003efd07000c01be0099fd0700d1
:1035a0000801be0097fd07000801be0038fd0700b6
:1035b0000a00a70001f0a2004f06be004f05be00a2
:1035c0004f04be0000000600040020000000370089
:1035d000889fbe008a9fbe008c1f78004f26dd00aa
:1035e00037ff07003eff33006120e1004300320057
:1035f0006250e10041003e003e0039006420e100dd
:103600003c003200058255000f003b000402e80038
:1036100038003a00800f5300818f5b003500340082
:103620000800be0003f0a10001f0a60003f0a00016
:103630000cf0a70016fd070032ff37000603430019
:1036400087834b000c4646000005530081855b00d4
:10365000020033000a03be000c00a0000402e900cf
:10366000f6ff3b00850578000602430087824b0089
:1036700004003a006000b80009f0a70001f0a000c3
:1036800020ff37000002520081825a000704e00048
:10369000040033000603430087834b008b05e900d9
:1036a000faff3700090578000604be000203be00d9
:1036b0006011b8001aff0700e00f5200e08f5a00b7
:1036c0000700350002003c000c08a3000400320093
:1036d0000601be0003f0a0000cf0a700ecfc070000
:1036e0000a85680001f0a1000af0a70001f0a0001f
:1036f00004ff37000800be0002ff37001002200060
:103700000cf0a60000c7880002ff3700020ab900cb
:10371000001bb9000200b800810042008100430094
:10372000000006000000fa00889fbe008a9fbe00cd
:103730008c1f78000006eb00e00f5000e08f58006f
:10374000e00f5900e08f590007003d006044b800c9
:103750006055b8000000540081805c0002015d00eb
:1037600083815d001c002000e00f5200e08f5a00b2
:10377000e00f5b00e08f5b0007003d006044b80095
:103780006055b8000402540085825c0006035d00a9
:1037900087835d000c00a2000d000700e00f5600bb
:1037a000060032006022b8006033b800000052000a
:1037b00081805a0002015b0083815b004f06780024
:1037c0004f05be004f04be000080fa000000060056
:1037d000889fbe008a9fbe008c9fbe000404b80074
:1037e0000506b8008904460060854e000606b8004c
:1037f0000a054600e0854e000706b8008b05460026
:10380000040eb800890446000a854e00e0854d008c
:10381000050eb8000a0546008b854e00060eb8005e
:103820008b0546000416b8000a0546008b854e003d
:103830000516b8008b054600041eb8008b0546002f
:103840000800be000a01be004f06be004f05be00c4
:103850004f04be00000006000000fa00006088006f
:103860001160880022608800336088000080fa00c0
:10387000000006000000fa00006188001161880065
:1038800042618800a36188000080fa000000060001
:103890000000fa00306188000080fa000000060095
:1038a0000000fa0050618800616188000080fa0021
:1038b000000006000000fa00000278000200370055
:1038c000315a78000201e900e00f5100fcff3a0094
:1038d0000080fa00000006000000fa0068015700ae
:1038e000ceb89700809b2200660007000080fa0097
:1038f000000006000000fa00889fbe000004be0021
:10390000050037000000fb0089007800e90307008c
:10391000e10f40000400320038407800e04f5000d2
:10392000f8ff3a000000eb004f04be000080fa00f0
:10393000000006000000fa00881f7800819b22002a
:10394000ecff070000047800819b2200a00020000b
:10395000d8030700080078004f0478000080fa00c0
:10396000000006000000fa00b042780031c25200a8
:1039700002003a00e0cf5200fbff3a000400fb00d7
:103980000080fa00000006000000fa000b0037007b
:1039900030427800e04f5200030032000201e9009b
:1039a000b14f5200050032000480fb0095427800c0
:1039b0008582fb000500500004003700810278007a
:1039c000e00f5100f2ff3a00020078000080fa0098
:1039d000000006000000fa00000278000200370034
:1039e000015a78000201e900e00f5100fcff3a00a3
:1039f0000080fa00000006000000fa00819b22000f
:103a0000ac0307000080fa00000006000000fa0086
:103a1000000278008042eb00b4cf1200fdff3a00b4
:103a20000080ea00000042000080fa00000006006a
:103a30000c00fa00889fbe0000047800f4ff270005
:103a4000540798008004eb0019079800080f7800cd
:103a500028079800240c20003407980068015700bc
:103a6000ceb897000e007800060007001e0278000e
:103a7000094a78001e0014004f04be000080fa00be
:103a8000000006003a00fa00889fbe008a9fbe0030
:103a90008c9fbe008006780001179800421798009e
:103aa0000000eb0060179800770337008e1090003d
:103ab0008100e8000117980054c2b300844f500001
:103ac00006003a00010278000006eb0001c3b300d3
:103ad00000c2b300b7c2b300100037003d0290002f
:103ae0000404b200040032001d027800004a78008d
:103af000840ee800050037000000fb008d00780010
:103b00006c030700e10f40005f0332006e1190006c
:103b10000201e800621798005b0337008402780016
:103b200034437800d3c2b300834f530009003200fe
:103b300005003c00804f530008003200874f5300bf
:103b40000c003a0007003700814f530009003a008b
:103b5000060037000c30a000f0ff37000c00a0007a
:103b6000eeff37000c10a000ecff37000c20a00087
:103b7000eaff370062026600010032000c00a1007b
:103b800068026600010032000c20a1000602fb0062
:103b90000403b100e90f52000c003e000503780059
:103ba0000002eb00ea22b800b602fb000503b100f8
:103bb00004824200860278009603fb000703b100ee
:103bc000e98f5300f7ff3600080037000002eb00d2
:103bd000a7c2b300874f530004003a004e13900071
:103be00046027800461798008502e8008003eb0043
:103bf00057179800e6c2b300954f13000c003a0027
:103c00000ce0a00064435300d54f130003003200c2
:103c10000503780007007800090037004e14900073
:103c2000c804780048179800591798008502e800e2
:103c30000503780009003700ea00b800008043005f
:103c400086027800b603fb000703b100e98f53003a
:103c5000f9ff360050179800f5ff3700b64278009c
:103c600006179800cbc6b3008bcf52002500320058
:103c70000f003c0036c6b30086cf5200a2003200cf
:103c800004003c00e0cf5200040332006b435300b9
:103c90000f00370046c6b30086cf5200170032002f
:103ca0006543430086cf5200b4003a00130037004a
:103cb00036c7b30086cf52001f00320007003c0019
:103cc0006443530086cf5200140032000643e800dc
:103cd00086cf5200a9003a001300370056c7b30040
:103ce00086cf5200aa0032006343430086cf5200c1
:103cf000a2003a00054f78000d003700054f78000c
:103d0000a5003700f0036600050120000100320025
:103d10000500280005067600d0ff3700054f780023
:103d20000c60a0009c003700054f78000c50a000ec
:103d30000c70a00098003700054f78004e109000de
:103d4000c00278004017980075179800e08f520065
:103d500002003a00429a2200721798007e139000e7
:103d60008002eb00010037008502e8008503430074
:103d70008041eb0097cf1100fbff3a00051f980030
:103d8000de129000e08f5200050032000e1b900002
:103d9000868f52000200310085037800071f9800cb
:103da0008e1a90000004eb00850f520001003600cf
:103db000050452006806660009c2b3001100320013
:103dc0002d0037003d0290000404b20004003200d0
:103dd0001d027800094a7800840ee80005003700cb
:103de0008d00780000022000b2020700e10f4000c1
:103df000030032006e1590000a05e8006a1798006b
:103e00000804e900e00f5400eeff3a000084eb00e4
:103e100019003700bd0290000504b200090032000d
:103e20009d0378008802780035437800864b78003f
:103e3000870ee80005047800e04f53000a003a00be
:103e400012003700880278003500fb000504780076
:103e50008d007800441f9800960207004e1a9000cb
:103e6000e10f4000090032006e1090000000e800f1
:103e70006017980005003700080278007e14900053
:103e80008e1c90001e1d9000ae1d900089027800cf
:103e90008504e900e08f5200deff3a0078179800b1
:103ea000091f98001a1f98002b1f9800040478001f
:103eb000e00f56007402320009c2b3006e16900083
:103ec0000e0037003d0290000404b20004003200ee
:103ed0001d027800094a7800840ee80005003700ca
:103ee0008d0078000002200072020700e10f400000
:103ef000010032000c06e8000804e900e00f54005d
:103f0000f0ff3a005f023700ce10900041047800c5
:103f100041179800cfc4de00090578008a057800b3
:103f20000800be000a01be004800de00c80add002d
:103f300000807200004f78007003660009003200b4
:103f4000e04f500007003200e14f40000500320012
:103f5000104798002847980026002000061f980068
:103f6000030037001847980017002000071f98002b
:103f70000e04e8007817980081ff3700054f78009d
:103f80007e1798001a0020000a1f98007cff370057
:103f9000054f78000c0cb3008c027800050cb200c1
:103fa0003b003a00e00f560005003d00ce129000a5
:103fb0004501be004500be00451798000f003700c0
:103fc000f0026600120032004e1490004803be005a
:103fd00048179800460798005707980098029000e5
:103fe000cfaade0065079800750798004e00900084
:103ff000de0090006e019000fe01900070179800a6
:10400000011f9800121f9800231f98000b00370013
:10401000ce109000c1027800411798000504780086
:10402000cfc4de00090578008a057800781798006b
:10403000091f98001a1f98002b1f98007e109000ef
:104040008e1890001e199000ae199000e00f5000dd
:10405000e08f5800e00f5900e08f590032003d001a
:104060003c00b3006000b8006011b8007e149000fe
:104070008e1c90001e1d9000ae1d90000804500084
:10408000898458000a0559008b85590022003700a1
:10409000e00f560005003d00ce1290004501be0025
:1040a0004500be00451798000f003700f00266007b
:1040b000120032004e1490004803be0048179800ca
:1040c000460f9800570f98008004eb00690f980086
:1040d0000005eb007a0f98004e089000de08900073
:1040e0006e099000fe09900070179800011f98005b
:1040f000121f9800231f98000b003700ce1090006d
:10410000c1027800411798000504780009002000da
:104110000a0020000b00200078179800091f980063
:104120001a1f98002b1f9800de149000e08f540097
:104130000d003a001a0020005a1798007e109000d7
:104140008e1890001e199000ae199000e00f5000dc
:10415000e08f5800e00f5900e08f59000200320054
:104160008000eb00511798000c017800020cb2009f
:104170003217980005042000850f510034003200ea
:1041800003003c00e00f51000800320048003700f7
:1041900005082000be119000858f510014003200e8
:1041a000050c2000858f510041003a00a68e2200a8
:1041b00015c0b3003600be003601be007e1490006c
:1041c0008e1c90001e1d9000ae1d90000040e1006e
:1041d00001c8e10002d0e10003d8e100330039005a
:1041e0008542e800f4cf5200f2ff3a002f0037007a
:1041f00015c0b30000012000010020006011b800cc
:104200007e1490008e1c90001e1d9000ae1d90002c
:104210000040e10001c8e10002d0e10003d8e10064
:1042200022003900490020000000d0008180d20027
:104230000281d2008381d2008904e900faff3a00aa
:104240008542e800f0cf5200edff3a00170037003a
:1042500015c0b30080002000010020006011b800ec
:104260007e1490008e1c90001e1d9000ae1d9000cc
:104270000040e10001c8e10002d0e10003d8e10004
:104280000a003900390020000000d0008180d200ef
:104290000281d2008381d2008904e900faff3a004a
:1042a0008542e800f5cf5200edff3a00054f780057
:1042b0009e02fb005e1590008a8f520002003d00b6
:1042c0000a4f780004003700de159000858f5500f6
:1042d00001003d0055179800e00f52000300320026
:1042e000e3026600010032000402e9000500240038
:1042f00085026600060032005e109000800f5200ba
:104300000200340000025200010037000002eb00fe
:104310009e02fb008000eb0021179800850f5200e1
:1043200002003400850252002517980064026600de
:1043300045003200e202660061026600e08f520032
:1043400017003200bd0290000504b20008003200e0
:104350009d027800b6c2b300e00f520001003200a7
:1043600006c3e800864a7800850ee800080037009a
:10437000b0022000e00f5200010032000080e8008f
:104380008d0078004b010700e10f4000160032005d
:104390006e1190000201e8006217980012003700c9
:1043a000e00f5200100032003d0290000404b20001
:1043b000050032001d02780005c2b300054a7800ee
:1043c000840ee800050037008d0078000002200010
:1043d00038010700e10f400003003200ee119000a9
:1043e0008301e800631798002e129000e00f52003e
:1043f0005b00320008c3b300840478003d029000e3
:104400000404b200040032001d027800084a78005b
:10441000840ee800050037008d00780000032000be
:1044200024010700e10f400003003200ee1290006b
:104430008502e800651798008904e900efff3a005b
:1044400029179800460037002e139000e00f530004
:10445000160032006802660014003a0008c2b30079
:10446000860478003d0290000404b200040032008b
:104470001d027800084a7800840ee8000500370025
:104480008d007800000220000a010700e10f4000c3
:1044900003003200ee1390008703e80067179800ce
:1044a0008904e900efff3a0029179800e20266004c
:1044b00061026600e08f520017003200bd029000da
:1044c0000504b200080032009d027800b6c2b300b5
:1044d000e00f52000100320006c3e800864a78006f
:1044e000850ee80008003700b0022000e00f5200ff
:1044f000010032000080e8008d007800ed00070028
:10450000e10f4000160032006e1490000804e8002d
:104510006817980012003700e00f520010003200b8
:104520003d0290000404b200050032001d02780034
:1045300005c2b300054a7800840ee8000500370084
:104540008d00780000022000da000700e10f400033
:1045500003003200ee1490008904e8006917980007
:104560005e1590008a02e900c32add00248e220035
:104570000482420014179800f00566003b0798007b
:104580000c0078000002b20020079800a30037005a
:10459000de1090008100e900511798003e11900054
:1045a00003042000830f51007600320003003c001a
:1045b000e00f51000800320083003700040820009b
:1045c000be129000848f520058003200040c20006c
:1045d000848f52007c003a00e00f56001b003d0023
:1045e0001e1390003604be002605be000802be0061
:1045f0000a03be007e1090008e1890001e199000d5
:10460000ae1990004bfa0700004f78000000fb0045
:10461000cf80de0001017800820178000802be0030
:104620000a03be003ffc07007e1490008e1c900021
:104630001e1d9000ae1d90000004540081845c009b
:1046400002055d0083855d0020003700be049000f8
:10465000e08f5400220032007e1290008e1a9000eb
:104660001e1090003004be002005be000801be00f0
:104670000400be00441f9800351f98008af8070008
:10468000004f78000000fb00cf80de000801be0074
:104690001efc07004e1a9000be1a90000001520046
:1046a00081815a00020f9800130f98008001eb00df
:1046b000230f98000002eb00340f98000e0c9000be
:1046c0009e0c90002e0d9000be0d90007817980063
:1046d000091f98001a1f98002b1f98001000370020
:1046e0009e149000190278007e15900080027800d8
:1046f000811f7800110009000485d8008002fd00a8
:10470000cf007800a4002000809fbe0011000900a7
:104710008482d800010278004f00be00044f780068
:104720000bc3b3001ecf4500270037003499220089
:104730002e009000e00f500001003200249822006b
:10474000de109000c20add007e1090008e189000ee
:104750001e199000ae1990008502e9000500330093
:104760008301d1000281d3008180d3000080d30077
:10477000f9ff3700ef02600005024200144f780095
:10478000110037005e119000e312b8007e14900013
:104790008e1c90001e1d9000ae1d9000040078003d
:1047a0000000e900050033008b05d1000a85d30025
:1047b0008984d3000884d300f9ff3700674264007e
:1047c00001c3b300014f42003d0290000404b20057
:1047d000070032009d0278001e427800844a78006b
:1047e000850ee800e04f520006003a00080037004e
:1047f0001e00fb008d0078002e000700e10f400036
:10480000030032006e1190000201e8006217980068
:104810009e119000e8815100131798005e129000dd
:10482000e00f52005aff3a00680666001600320098
:10483000ae129000e08f52001300340008c2b300a3
:10484000850478006e1690003d0290000404b200ca
:10485000040032001d027800084a7800840ee80047
:10486000050037008d0078000002200011000700cd
:10487000e10f4000010032000c06e8008904e90065
:10488000f1ff3a006c1798000e1390001640780064
:10489000004f7800e04f500084fc3a006e1090000a
:1048a0004f06be004f05be004f04be000080fa0058
:1048b000000006000000fa00889fbe000104780096
:1048c00038029000e20262008084eb003b0032007c
:1048d000040378000620b2009802900002003a001b
:1048e000e08f520035003a000490a0003404980094
:1048f00080047800f90fb200e08f520002003a0005
:10490000a8029000050c7800ea8f540005003a00d8
:104910000408b20003003a0088007800d0002000ac
:10492000e4ff070018029000d8029000850f5200a3
:104930000b0032000402e80014049800180278000a
:10494000094a7800040ce80015c0b300249d220039
:10495000054a7800ea8f540018003a000500370035
:10496000880078000940780018000700800478006b
:1049700012003700380290000410b2000f0032001d
:1049800018019000a80090004800900096f70700da
:1049900018029000840f500004003200380290008a
:1049a0000403b300340498008084eb000002eb00a1
:1049b0001404980028029000040c78000900780084
:1049c0004f04be000080fa00000006000200fa005a
:1049d000889fbe00004f78000104780038029000e4
:1049e000840278000504b200020032000000fb00df
:1049f00033003700e202620005003a000403b3000e
:104a000034049800150498000080eb002c00370057
:104a1000d8049000e08f540006003a0012002000f5
:104a20008e007800480090006ff707001904980086
:104a300022003700a8029000e08f520008003a00e0
:104a4000559d220025049800050c780025002000c3
:104a500055049800150498000430a0003404980010
:104a600018019000a8009000480090005ef7070031
:104a7000280290008082eb00150498001e4a7800fe
:104a8000040ce800a4c0b3009e4f12000b003a00d3
:104a9000380290000410b2000800320018019000a3
:104aa000a8009000480090004ff707000002eb00bc
:104ab0001404980028029000040c78001e00fb00eb
:0c4ac0004f04be000080fa000000060059
:020000040000fa
:1000080002100000061000000a1000000e10000088
:1000180012100000161000001a1000001e10000038
:1000280022100000261000002a1000002e100000e8
:1000380032100000361000003a1000003e10000098
:1000480042100000461000004a1000004e10000048
:1000580052100000561000005a1000005e100000f8
:1000680062100000661000006a1000006e100000a8
:1000780072100000761000007a1000007e10000058
:1000880082100000861000008a1000008e10000008
:1000980092100000961000009a1000009e100000b8
:1000a800a2100000a6100000aa100000ae10000068
:1000b800b2100000b6100000ba100000be10000018
:1000c800c2100000c6100000ca100000ce100000c8
:1000d800d2100000d6100000da100000de10000078
:1000e800e2100000e6100000ea100000ee10000028
:1000f800f2100000f6100000fa100000fe100000d8
:1001080002110000061100000a1100000e11000083
:1001180012110000161100001a1100001e11000033
:1001280022110000261100002a1100002e110000e3
:1001380032110000361100003a1100003e11000093
:1001480042110000461100004a1100004e11000043
:1001580052110000561100005a1100005e110000f3
:1001680062110000661100006a1100006e110000a3
:1001780072110000761100007a1100007e11000053
:1001880082110000861100008a1100008e11000003
:1001980092110000961100009a1100009e110000b3
:1001a800a2110000a6110000aa110000ae11000063
:1001b800b2110000b6110000ba110000be11000013
:1001c800c2110000c6110000ca110000ce110000c3
:1001d800d2110000d6110000da110000de11000073
:1001e800e2110000e6110000ea110000ee11000023
:1001f800f2110000f6110000fa110000fe110000d3
:1002080002120000061200000a1200000e1200007e
:1002180012120000161200001a1200001e1200002e
:1002280022120000261200002a1200002e120000de
:1002380032120000361200003a1200003e1200008e
:1002480042120000461200004a1200004e1200003e
:1002580052120000561200005a1200005e120000ee
:1002680062120000661200006a1200006e1200009e
:0c02780072120000761200007a120000e2
:020000040000fa
:020000040005f5
:045ff400ffff0000ab
:020000040000fa
:020000040005f5
:045ff00038ff000076
:020000040000fa
:020000040005f5
:045fec005dff000055
:020000040000fa
:020000040005f5
:045fe8007fff000037
:020000040000fa
:020000040005f5
:045fe400ffff0000bb
:020000040000fa
:020000040005f5
:045fe000cfff0000ef
:020000040000fa
:104acc00415400002b4200004155000044310000cd
:104adc0000410000542b00004241000055440000ee
:104aec0032000000415400002b42000041550000f0
:104afc004433000000410000542b000042410000f0
:104b0c005544000034000000415400002b420000ca
:104b1c00415500004435000000410000542b0000ba
:104b2c004241000055440000360000004154000092
:104b3c002b420000415500004437000000410000aa
:104b4c00542b000042410000554400003800000086
:104b5c00415400002b420000415500004439000034
:104b6c0000410000542b000042410000554400005d
:104b7c0041000000415400002b4200004155000050
:104b8c004442000000410000542b00004241000050
:104b9c005544000043000000415400002b4e00001f
:104bac00414d0000452500007300000043750000d6
:104bbc007020000044650000746500006374000000
:104bcc0065640000004e00006f200000437500007b
:104bdc0070200000446500007465000063740000e0
:104bec0065640000005000006f640000202300008a
:104bfc00256400000d0a0000004c000069670000ed
:104c0c0068740000205200006561000064690000b7
:104c1c006e6700003a200000256400000d0a0000b9
:104c2c00004f0000666600007365000074200000f1
:104c3c00416d00006f7500006e7400003a2000009a
:104c4c00256400000d0a000000410000646a0000a9
:104c5c007573000074650000642000004c65000052
:104c6c00766500006c3a000020250000640d000001
:104c7c000a000000446500007465000063740000c5
:104c8c00696f00006e200000537400006174000016
:104c9c00653a000020250000730d00000a0d00008d
:104cac000a0000000d0a00000d0000005f5f00000c
:104cbc005f5f00005f5f00005f5f00005f5f0000f0
:104ccc005f5f00005f5f00005f5f00005f5f0000e0
:104cdc005f5f00005f5f00005f5f00005f5f0000d0
:104cec005f5f00005f5f00005f5f00005f5f0000c0
:104cfc005f5f00005f5f00005f5f00005f5f0000b0
:104d0c005f5f00005f5f00005f5f00005f5f00009f
:104d1c005f5f00005f5f00005f5f00005f5f00008f
:104d2c005f5f00005f5f00005f5f00005f5f00007f
:104d3c005f5f00005f5f00005f5f00005f5f00006f
:104d4c005f5f00005f5f00005f5f00005f5f00005f
:104d5c005f5f00000d0000002d2d00002d2d0000c8
:104d6c002d2d00002d2d00002d2d00002d2d0000cf
:104d7c002d2d00002d2d00002d2d00002d2d0000bf
:104d8c002d2d00002d2d00002d2d00002d2d0000af
:104d9c002d2d00002d2d00002d2d00002d2d00009f
:104dac002d2d00002d2d00002d2d00002d2d00008f
:104dbc002d2d00002d2d00002d2d00002d2d00007f
:104dcc002d2d00002d2d00002d2d00002d2d00006f
:104ddc002d2d00002d2d00002d2d00002d2d00005f
:104dec002d2d00002d2d00002d2d00002d2d00004f
:104dfc002d2d00002d2d00002d2d00002d2d00003f
:104e0c000d0000007c7c0000202000002020000011
:104e1c002020000020200000202000002020000086
:104e2c002020000020200000202000002020000076
:104e3c002020000020200000202000002020000066
:104e4c002020000020200000202000002020000056
:104e5c002020000020200000202000002020000046
:104e6c002020000020200000202000002020000036
:104e7c002020000020200000202000002020000026
:104e8c002020000020200000202000002020000016
:104e9c002020000020200000202000002020000006
:104eac0020200000202000007c7c00000d00000071
:104ebc007c7c00002020000020200000202000002e
:104ecc0020200000202000002020000020200000d6
:104edc0020200000202000002020000020200000c6
:104eec002020000020200000496e000074650000a6
:104efc007261000063740000697600006520000098
:104f0c004c45000044200000426500006572000022
:104f1c00205000006f6e00006720000054610000fc
:104f2c00626c0000652000002020000020200000a2
:104f3c002020000020200000202000002020000065
:104f4c002020000020200000202000002020000055
:104f5c00202000007c7c00000d0000007c7c000008
:104f6c002020000020200000202000002020000035
:104f7c002020000020200000202000002020000025
:104f8c002020000020200000202000002020000015
:104f9c002020000020200000202000002020000005
:104fac0020200000204400006562000075670000ae
:104fbc00676900006e670000204d0000656e000000
:104fcc007520000020200000202000002020000080
:104fdc0020200000202000002020000020200000c5
:104fec0020200000202000002020000020200000b5
:104ffc0020200000202000002020000020200000a5
:10500c007c7c00000d0000007c7c00002020000057
:10501c0020200000434d0000442000002d2d0000f6
:10502c002d2d00002d2d00002d2d00002d2d00000c
:10503c002d2d00002d2d00002d2d00002d2d0000fc
:10504c002d2d00002d2d00003e2000004465000099
:10505c00736300007269000070740000696f0000d7
:10506c006e200000202000002020000020200000e6
:10507c002020000020200000202000002020000024
:10508c002020000020200000202000002020000014
:10509c002020000020200000202000002020000004
:1050ac002020000020200000202000007c7c00003c
:1050bc000d0000007c7c000020200000202000005f
:1050cc006e2000003d3e0000205600006172000082
:1050dc0069610000626c0000652000002331000053
:1050ec002028000055730000756100006c6c0000f6
:1050fc007920000064650000706900006374000092
:10510c0073200000612000006465000073740000cf
:10511c00696e000061740000696f00006e20000071
:10512c006f7200002070000061720000742000009b
:10513c002329000020200000202000002020000057
:10514c002020000020200000202000002020000053
:10515c0020200000202000007c7c00000d000000be
:10516c007c7c000020200000202000007820000023
:10517c003d3e000020560000617200006961000095
:10518c00626c000065200000233200002028000023
:10519c0055730000756100006c6c000079200000f4
:1051ac007573000065640000207400006f2000001f
:1051bc007772000069740000652f000061730000b5
:1051cc0073690000676e000020610000207600000b
:1051dc00616c000075650000207400006f200000f9
:1051ec0061200000726500006769000073740000a4
:1051fc006572000029200000202000002020000003
:10520c00202000007c7c00000d0000007c7c000055
:10521c00204200005420000020200000202000002c
:10522c002020000020200000202000002020000072
:10523c002020000020200000202d00003e20000037
:10524c004c6900006e6b0000205400006573000078
:10525c00743b000020570000696c00006c200000bb
:10526c007265000074750000726e00002061000011
:10527c006e200000416300006b2000007369000089
:10528c00676e0000616c00002c2000007665000049
:10529c007269000066790000696e000067200000ea
:1052ac006c6900006e6b00002e20000020200000b6
:1052bc007c7c00000d0000007c7c00002042000083
:1052cc00542b00004d4500004e55000020200000de
:1052dc0020200000202000002020000020200000c2
:1052ec0020200000202d00003e200000536800000c
:1052fc006f770000207400006869000073200000c4
:10530c006375000072720000656e0000742000006e
:10531c006d6500006e75000020200000202000004c
:10532c002020000020200000202000002020000071
:10533c002020000020200000202000002020000061
:10534c002020000020200000202000002020000051
:10535c002020000020200000202000007c7c000089
:10536c000d0000007c7c000020420000542b00004b
:10537c005645000052530000494f00004e200000db
:10538c002020000020200000202000002020000011
:10539c00202d00003e200000576900006c6c0000be
:1053ac002072000065740000757200006e20000011
:1053bc0074680000652000006375000072720000c4
:1053cc00656e00007420000066690000726d0000bc
:1053dc0077610000726500002076000065720000a5
:1053ec00736900006f6e0000202000002020000078
:1053fc0020200000202000002020000020200000a1
:10540c0020200000202000007c7c00000d0000000b
:10541c007c7c000020420000542b0000504f000008
:10542c00443a00006e3d000078200000202000006f
:10543c00202000002020000020200000202d000053
:10544c003e2000004163000074690000766100009a
:10545c0074650000205000006f64000020200000e4
:10546c002020000020200000202000002020000030
:10547c002020000020200000202000002020000020
:10548c002020000020200000202000002020000010
:10549c002020000020200000202000002020000000
:1054ac0020200000202000002020000020200000f0
:1054bc00202000007c7c00000d0000007c7c0000a3
:1054cc0020420000542b00004c45000044520000c8
:1054dc00494e0000473a00006e3d00007820000065
:1054ec002020000020200000202d00003e20000085
:1054fc0053650000742000004c450000442000005f
:10550c00526900006e6700002062000072690000a2
:10551c0067680000746e0000657300007320000063
:10552c00202000002020000020200000202000006f
:10553c00202000002020000020200000202000005f
:10554c00202000002020000020200000202000004f
:10555c00202000002020000020200000202000003f
:10556c007c7c00000d0000007c7c000020420000d0
:10557c00542b000050490000584500004c3a0000e4
:10558c006e3d00007820000020200000202000004c
:10559c0020200000202d00003e200000547500004b
:1055ac00726e0000206f00006e2f00006f6600000e
:1055bc00662000006120000073700000656300002d
:1055cc0069660000696500006420000070690000d5
:1055dc00786500006c2000006f6e000020740000e5
:1055ec0068650000204c0000454400002067000066
:1055fc0072690000642000002020000020200000c0
:10560c002020000020200000202000007c7c0000d6
:10561c000d0000007c7c000020420000542b000098
:10562c0053540000414e0000444200005920000039
:10563c00202000002020000020200000202000005e
:10564c00202d00003e200000446900007361000022
:10565c00626c000065200000616c00006c20000092
:10566c006375000072720000656e0000746c0000bf
:10567c0079200000727500006e6e0000696e0000eb
:10568c0067200000616e0000696d0000617400000d
:10569c00696f00006e7300002020000020200000c5
:1056ac0020200000202000002020000020200000ee
:1056bc0020200000202000007c7c00000d00000059
:1056cc007c7c000020420000542b00004143000071
:1056dc005449000056450000202000002020000006
:1056ec00202000002020000020200000202d0000a1
:1056fc003e200000416300007469000076610000e8
:10570c0074650000206100006c6c000020610000da
:10571c006e6900006d610000746900006f6e00001e
:10572c0073200000616e00006420000066650000bc
:10573c006174000075720000657300002020000089
:10574c00202000002020000020200000202000004d
:10575c00202000002020000020200000202000003d
:10576c00202000007c7c00000d0000007c7c0000f0
:10577c0020420000542b0000484500004c50000013
:10578c00202000002020000020200000202000000d
:10579c002020000020200000202d00003e200000d2
:1057ac00412000006465000074610000696c000019
:1057bc0065640000207300006563000074690000dc
:1057cc006f6e0000207200006567000061720000bf
:1057dc00646900006e670000206100006c6c0000c2
:1057ec00206300006f6d00006d6100006e640000ae
:1057fc00732000002020000020200000202000004a
:10580c00202000002020000020200000202000008c
:10581c007c7c00000d0000007c7c0000204200001d
:10582c00542b00005752000049540000452b000037
:10583c0045450000505200004f4d00003a6e0000ec
:10584c003d780000202d00003e2000005573000024
:10585c0065640000207400006f2000007772000067
:10586c0069740000652000006f6e00006520000068
:10587c006279000074650000206900006e740000fd
:10588c006f20000045450000505200004f4d0000b5
:10589c00206600006f720000207400006573000029
:1058ac00746900006e6700002070000075720000c3
:1058bc00706f000073650000732000007c7c00009a
:1058cc000d0000007c7c000020420000542b0000e6
:1058dc0052450000414400002b450000455000009b
:1058ec00524f00004d3a00006e3d00007820000041
:1058fc00202d00003e200000557300006564000060
:10590c00207400006f2000007665000072690000b2
:10591c0066790000207400006865000020640000b7
:10592c006174000061200000696e0000206f0000af
:10593c006e6500002072000065690000677300004e
:10594c0074650000722000006f6600002074000077
:10595c00686500002045000045500000524f0000d3
:10596c004d200000202000007c7c00000d00000079
:10597c007c7c000020420000542b000052450000ab
:10598c00534500005420000020200000202000007f
:10599c00202000002020000020200000202d0000ee
:1059ac003e2000005265000073650000742000006a
:1059bc00746800006520000074610000626c0000d7
:1059cc00653b000020430000616e00002062000077
:1059dc0065200000757300006564000020740000f1
:1059ec006f20000075700000677200006164000099
:1059fc006520000066690000726d00007761000090
:105a0c0072650000202000002020000020200000f3
:105a1c00202000007c7c00000d0000002d2d0000db
:105a2c002d2d00002d2d00002d2d00002d2d000002
:105a3c002d2d00002d2d00002d2d00002d2d0000f2
:105a4c002d2d00002d2d00002d2d00002d2d0000e2
:105a5c002d2d00002d2d00002d2d00002d2d0000d2
:105a6c002d2d00002d2d00002d2d00002d2d0000c2
:105a7c002d2d00002d2d00002d2d00002d2d0000b2
:105a8c002d2d00002d2d00002d2d00002d2d0000a2
:105a9c002d2d00002d2d00002d2d00002d2d000092
:105aac002d2d00002d2d00002d2d00002d2d000082
:105abc002d2d00002d2d00002d2d00002d0000009f
:105acc000d0a00000d0a00000d0000002d2d000035
:105adc002d2d00002d2d00002d2d00002d2d000052
:105aec002d2d00002d2d00002d2d00002d2d000042
:105afc002d2d00002d2d00002d2d00002d2d000032
:105b0c002d2d00002d2d00002d2d00002d2d000021
:105b1c002d2d00002d2d00002d2d00002d2d000011
:105b2c002d2d00002d2d00002d2d00002d2d000001
:105b3c002d2d00002d2d00002d2d00002d2d0000f1
:105b4c002d2d00002d2d00002d2d00002d2d0000e1
:105b5c002d2d00002d2d00002d2d00002d2d0000d1
:105b6c002d2d00002d2d00002d2d00002d0d0000e1
:105b7c00007c0000202000002020000020200000dd
:105b8c002020000020200000202000002020000009
:105b9c0020200000202000002020000020200000f9
:105bac002045000045500000524f00004d200000e1
:105bbc0052650000616400002f57000072690000fc
:105bcc0074650000204300006f6d00006d610000e3
:105bdc006e64000020480000656c0000702000001e
:105bec0020200000202000002020000020200000a9
:105bfc002020000020200000202000002020000099
:105c0c002020000020200000202000002020000088
:105c1c00207c00000d0000007c2000005468000077
:105c2c0069730000206300006f6d00006d6100005f
:105c3c006e64000020690000732000007573000082
:105c4c0065640000207400006f200000656e000089
:105c5c00737500007265000020740000686100001c
:105c6c00742000007468000065200000504900009a
:105c7c004320000069730000206300006f6d00007a
:105c8c006d7500006e6900006361000074690000ae
:105c9c006e67000020770000697400006820000027
:105cac00746800006520000045450000505200005b
:105cbc004f4d0000202000007c0d0000007c0000f7
:105ccc0020700000726f000070650000726c0000a4
:105cdc00792e0000205400006f2000007465000035
:105cec0073740000206900006620000077650000d6
:105cfc002068000061760000652000006120000033
:105d0c00736f00006c69000064200000636f00007a
:105d1c006e6e000065630000746900006f6e000019
:105d2c00207400006f2000007468000065200000e3
:105d3c0045450000505200004f4d0000206300000c
:105d4c0068690000702c00002077000065200000be
:105d5c00636100006e20000020200000207c000009
:105d6c000d0000007c2000007772000069740000b8
:105d7c00652000006f6e0000652000006279000055
:105d8c0074650000207400006f200000616e00003c
:105d9c0079200000616400006472000065730000eb
:105dac007320000028300000202d0000203300005c
:105dbc003237000036370000292000006f660000e3
:105dcc002074000068650000206300006869000012
:105ddc00702e0000204600006f720000206500004d
:105dec00786100006d7000006c6500002c200000d4
:105dfc00746f000020770000726900007465000069
:105e0c00202000007c0d0000007c000020610000c0
:105e1c0020760000616c000075650000206f0000aa
:105e2c00662000003139000036200000746f00003d
:105e3c0020740000686500002061000064640000ac
:105e4c00726500007373000020720000656700002b
:105e5c00697300007465000072200000617400001a
:105e6c00203200003135000034380000207700006b
:105e7c0065200000776f0000756c00006420000046
:105e8c007772000069740000653a00002020000061
:105e9c0020200000202000002020000020200000f6
:105eac002020000020200000207c00000d000000bd
:105ebc007c2000002020000020200000202000007a
:105ecc0020200000202000002020000020200000c6
:105edc0020200000202000002020000020200000b6
:105eec0020200000202000002020000020200000a6
:105efc002020000020200000202000002020000096
:105f0c002020000020200000202000002020000085
:105f1c002020000020200000202000002020000075
:105f2c002020000020200000202000002020000065
:105f3c002020000020200000202000002020000055
:105f4c002020000020200000202000002020000045
:105f5c007c0d0000007c000020420000542b00004f
:105f6c005752000049540000452b000045450000e5
:105f7c00505200004f4d00003a3200003135000005
:105f8c00343800003d31000039360000202000007c
:105f9c0020200000202000002020000020200000f5
:105fac0020200000202000002020000020200000e5
:105fbc0020200000202000002020000020200000d5
:105fcc0020200000202000002020000020200000c5
:105fdc0020200000202000002020000020200000b5
:105fec0020200000202000002020000020200000a5
:105ffc0020200000207c00000d0000007c20000010
:10600c00546f0000207200006561000064200000e5
:10601c007468000065200000766100006c7500005b
:10602c006520000062610000636b000020740000ba
:10603c00686100007420000077610000732000008c
:10604c007772000069740000746500006e20000017
:10605c00696e0000746f0000207400006865000019
:10606c002072000065670000697300007465000011
:10607c00722000006f6600002032000031340000f6
:10608c00353800002c2000007765000020770000d8
:10609c006f7500006c640000202000007c0d000077
:1060ac00007c00002077000072690000746500001d
:1060bc003a200000202000002020000020200000ba
:1060cc0020200000202000002020000020200000c4
:1060dc0020200000202000002020000020200000b4
:1060ec0020200000202000002020000020200000a4
:1060fc002020000020200000202000002020000094
:10610c002020000020200000202000002020000083
:10611c002020000020200000202000002020000073
:10612c002020000020200000202000002020000063
:10613c002020000020200000202000002020000053
:10614c00207c00000d0000007c2000004254000068
:10615c002b52000045410000442b00004545000037
:10616c00505200004f4d00003a3200003135000013
:10617c00343800003d3000002020000020200000ba
:10618c002020000020200000202000002020000003
:10619c0020200000202000002020000020200000f3
:1061ac0020200000202000002020000020200000e3
:1061bc0020200000202000002020000020200000d3
:1061cc0020200000202000002020000020200000c3
:1061dc0020200000202000002020000020200000b3
:1061ec0020200000202000007c0d0000007c00001e
:1061fc002054000068650000203200006e6400002e
:10620c00207600006172000069610000626c000081
:10621c006520000028300000292000006861000083
:10622c00732000006e6f00002065000066660000a1
:10623c0065630000742000006f6e00002074000085
:10624c006865000020720000656100006420000099
:10625c00616e000064200000636100006e2000008d
:10626c0062650000206100006e790000207600005d
:10627c00616c0000756500002e200000486f000066
:10628c007765000076650000722c0000207c000011
:10629c000d0000007c20000069740000206d0000df
:1062ac00757300007420000073740000696c0000aa
:1062bc006c20000062650000206900006e63000025
:1062cc006c7500006465000064200000696e0000bd
:1062dc002074000068650000206300006f6d0000f2
:1062ec006d6100006e640000206f000072200000e1
:1062fc00616e000020650000727200006f72000079
:10630c0020770000696c00006c20000062650000c2
:10631c002072000065740000757200006e6500004c
:10632c00642e00002020000020200000202000000f
:10633c00202000007c0d0000007c00002054000098
:10634c006865000020620000657300007420000086
:10635c007761000079200000746f00002074000049
:10636c006573000074200000746800006520000054
:10637c0045450000505200004f4d000020690000c0
:10638c0073200000746f000020630000686f000031
:10639c006f73000065200000616e0000206100003a
:1063ac006464000072650000737300002c20000010
:1063bc0072650000616400002074000068610000d8
:1063cc0074200000616400006472000065730000ba
:1063dc007320000020200000207c00000d00000035
:1063ec007c200000746f00002073000065650000c5
:1063fc0020770000686100007420000064650000d4
:10640c0066610000756c000074200000766100006d
:10641c006c750000652000006973000020690000a5
:10642c006e2000007468000065720000652c00008e
:10643c0020740000686500006e2000007772000078
:10644c006974000065200000612000006e6500008a
:10645c0077200000766100006c750000652000005c
:10646c00746f00002074000068610000742000004c
:10647c00616400006472000065730000732000000a
:10648c007c0d0000007c00002061000067610000b2
:10649c00696e0000206100006e6400002072000034
:1064ac006561000064200000746800006520000035
:1064bc00766100006c75000065200000696e0000bc
:1064cc002074000068650000206100006464000016
:1064dc007265000073730000206f00006e63000093
:1064ec00652000006d6f0000726500002c2000001c
:1064fc00656e000073750000726900006e67000025
:10650c0020740000686100007420000069740000b1
:10651c0020630000686100006e6700006564000085
:10652c0020200000207c00000d0000007c200000da
:10653c00746f000020740000686500002076000075
:10654c00616c00007565000020740000686100003b
:10655c0074200000796f0000752000006a7500003f
:10656c007374000020770000726f000074650000e7
:10657c00206900006e7400006f2000006974000038
:10658c002e200000202000002020000020200000f1
:10659c0020200000202000002020000020200000ef
:1065ac0020200000202000002020000020200000df
:1065bc0020200000202000002020000020200000cf
:1065cc002020000020200000202000007c0d000076
:1065dc00005f00005f5f00005f5f00005f5f000016
:1065ec005f5f00005f5f00005f5f00005f5f0000a7
:1065fc005f5f00005f5f00005f5f00005f5f000097
:10660c005f5f00005f5f00005f5f00005f5f000086
:10661c005f5f00005f5f00005f5f00005f5f000076
:10662c005f5f00005f5f00005f5f00005f5f000066
:10663c005f5f00005f5f00005f5f00005f5f000056
:10664c005f5f00005f5f00005f5f00005f5f000046
:10665c005f5f00005f5f00005f5f00005f5f000036
:10666c005f5f00005f5f00005f5f00005f5f000026
:10667c005f5f00000d0000007c7c0000202000000b
:10668c0020200000202000002020000020200000fe
:10669c0020200000202000002020000020200000ee
:1066ac0020200000202000002020000020200000de
:1066bc0020200000202000002020000020480000a6
:1066cc00656c0000702000004d6500006e750000c8
:1066dc0020200000202000002020000020200000ae
:1066ec00202000002020000020200000202000009e
:1066fc00202000002020000020200000202000008e
:10670c00202000002020000020200000202000007d
:10671c0020200000207c00007c0d0000007c00008c
:10672c007c20000020200000202000002020000001
:10673c00202000002020000020200000202000004d
:10674c00202000002020000020200000202000003d
:10675c00202000002020000020200000202000002d
:10676c00202000002020000020200000202000001d
:10677c00202000002020000020200000202000000d
:10678c0020200000202000002020000020200000fd
:10679c0020200000202000002020000020200000ed
:1067ac0020200000202000002020000020200000dd
:1067bc002020000020200000202000007c7c000015
:1067cc000d0000007c7c000020420000542b0000d7
:1067dc00504f0000442b0000484500004c50000076
:1067ec002020000020200000202000002d3e000072
:1067fc0020420000726900006e67000020750000e6
:10680c0070200000686500006c700000206d0000b6
:10681c00656e000075200000666f0000722000009d
:10682c00425400002b5000004f4400002063000035
:10683c006f6d00006d6100006e6400002020000090
:10684c00202000002020000020200000202000003c
:10685c00202000002020000020200000202000002c
:10686c00207c00007c0d0000007c00007c200000df
:10687c00425400002b4c00004544000052490000db
:10688c004e4700002b480000454c000050200000f3
:10689c00202d00003e20000042720000696e0000b6
:1068ac00672000007570000020680000656c000017
:1068bc00702000006d6500006e7500002066000001
:1068cc006f72000020420000542b00004c45000069
:1068dc0044520000494e000047200000636f000046
:1068ec006d6d0000616e000064200000202000002f
:1068fc00202000002020000020200000202000008c
:10690c0020200000202000007c7c00000d000000f6
:10691c007c7c000020420000542b000050490000f9
:10692c00584500004c2b0000484500004c5000001e
:10693c0020200000202000002d3e000020420000fe
:10694c00726900006e670000207500007020000066
:10695c00686500006c700000206d0000656e000022
:10696c0075200000666f0000722000004254000089
:10697c002b50000049580000454c000020630000db
:10698c006f6d00006d6100006e640000202000003f
:10699c0020200000202000002020000020200000eb
:1069ac00202000002020000020200000207c00007f
:1069bc007c0d0000007c00007c2000004254000094
:1069cc002b45000045500000524f00004d2b00009d
:1069dc00484500004c50000020200000202d0000f5
:1069ec003e20000042720000696e0000672000002b
:1069fc0075700000207400006865000020680000bd
:106a0c00656c0000702000006d6500006e75000064
:106a1c00206600006f7200002074000068650000a2
:106a2c002045000045500000524f00004d20000052
:106a3c007465000073740000696e0000672000002c
:106a4c00636f00006d6d0000616e000064730000e8
:106a5c00202000007c7c00000d0000007c20000049
:106a6c00202000002020000020200000202000001a
:106a7c00202000002020000020200000202000000a
:106a8c0020200000202000002020000020200000fa
:106a9c00425400002b4c00004544000052490000b9
:106aac004e4700003a6e00003d7800002043000085
:106abc006f6d00006d6100006e64000020480000e6
:106acc00656c0000702000002020000020200000d9
:106adc0020200000202000002020000020200000aa
:106aec00202000002020000020200000202000009a
:106afc002020000020200000202000007c0d000041
:106b0c00007c000020540000686900007320000025
:106b1c00636f00006d6d0000616e0000642000006a
:106b2c00616c00006c6f0000777300002075000032
:106b3c007365000072730000207400006f20000069
:106b4c0063680000616e000067650000207400003f
:106b5c006865000020620000726900006768000030
:106b6c00746e000065730000732000006f660000f7
:106b7c002074000068650000204c000045440000b3
:106b8c0020720000696e000067730000206f000027
:106b9c0072200000616e00007920000020200000af
:106bac00207c00000d0000007c2000006f740000b1
:106bbc0068650000722000006465000076690000c2
:106bcc0063650000732000007468000061740000ad
:106bdc002061000072650000206300006f6e0000f1
:106bec006e65000063740000656400002074000092
:106bfc006f200000616e0000792000006f660000bd
:106c0c002074000068650000203100003620000070
:106c1c004c450000446e00002063000068610000d9
:106c2c006e6e0000656c0000732000006f6e00003b
:106c3c0020740000686500002050000043420000f2
:106c4c002e200000202000007c0d0000007c0000a5
:106c5c002054000068650000202700006e2700000b
:106c6c00207600006172000069610000626c000017
:106c7c00652000006465000073690000676e000009
:106c8c0061740000657300002074000068650000ea
:106c9c00204c0000454400006e200000636800009a
:106cac00616e00006e6500006c200000616e0000db
:106cbc006420000074680000652000002778000044
:106ccc0027200000766100007269000061620000fc
:106cdc006c650000207300006574000073200000d8
:106cec00746800006520000020200000207c00005b
:106cfc000d0000007c20000062720000696700003b
:106d0c00687400006e65000073730000206c000056
:106d1c0065760000656c0000206f000066200000a6
:106d2c00746800006520000063680000616e00005c
:106d3c006e6500006c20000028300000202d000043
:106d4c00203600003535000033350000292e0000b8
:106d5c002020000020200000202000002020000027
:106d6c002020000020200000202000002020000017
:106d7c002020000020200000202000002020000007
:106d8c0020200000202000002020000020200000f7
:106d9c00202000007c0d0000007c0000205400002e
:106dac006f20000073650000742000007468000000
:106dbc006520000063680000616e00006e650000d5
:106dcc006c2000006f660000204c00004544000061
:106ddc0037200000746f000020610000205000007c
:106dec00574d000020760000616c000075650000b6
:106dfc00206f0000662000003236000030300000aa
:106e0c00302c00002077000065200000776f000018
:106e1c00756c00006420000077720000697400003b
:106e2c00653a0000202000002020000020200000f7
:106e3c002020000020200000207c00000d0000001d
:106e4c007c200000425400002b4c00004544000004
:106e5c00524900004e4700003a3700003d32000016
:106e6c0036300000303000002020000020200000d0
:106e7c002020000020200000202000002020000006
:106e8c0020200000202000002020000020200000f6
:106e9c0020200000202000002020000020200000e6
:106eac0020200000202000002020000020200000d6
:106ebc0020200000202000002020000020200000c6
:106ecc0020200000202000002020000020200000b6
:106edc0020200000202000002020000020200000a6
:106eec007c0d0000007c0000205400006f2000008e
:106efc007365000074200000616c00006c200000c1
:106f0c004c450000446e00002063000068610000e6
:106f1c006e6e0000656c000073200000746f000042
:106f2c0020610000207300007065000063690000a0
:106f3c006669000063200000766100006c7500003b
:106f4c00652c0000206500006e7400006572000066
:106f5c002061000020760000616c00007565000067
:106f6c00206f000066200000393900003920000035
:106f7c00666f000072200000276e0000272e0000b4
:106f8c0020200000207c00000d0000007c20000070
:106f9c00546f000020730000657400002061000035
:106fac006c6c000020630000686100006e6e0000d5
:106fbc00656c000073200000746f000020610000fd
:106fcc0020760000616c000075650000206f0000e9
:106fdc006620000036320000333200003120000001
:106fec0077650000207700006f7500006c6400006e
:106ffc002077000072690000746500003a200000e0
:10700c002020000020200000202000002020000074
:10701c002020000020200000202000002020000064
:10702c002020000020200000202000007c0d00000b
:10703c00007c000020420000542b00004c45000056
:10704c0044520000494e0000473a00003939000014
:10705c00393d000036320000333200003120000090
:10706c002020000020200000202000002020000014
:10707c002020000020200000202000002020000004
:10708c0020200000202000002020000020200000f4
:10709c0020200000202000002020000020200000e4
:1070ac0020200000202000002020000020200000d4
:1070bc0020200000202000002020000020200000c4
:1070cc0020200000202000002020000020200000b4
:1070dc00207c00000d0000007c20000057680000a0
:1070ec00656e0000207900006f75000020610000c3
:1070fc007265000020740000657300007469000064
:10710c006e670000207400006869000073200000a6
:10711c00636f00006d6d0000616e00006420000064
:10712c006f75000074200000796f0000752000005e
:10713c00736800006f7500006c6400002064000030
:10714c0069730000616200006c650000207400002f
:10715c0068650000206d0000616900006e20000071
:10716c00616e0000696d000061740000696f0000c1
:10717c006e730000202000007c0d0000007c0000dd
:10718c002074000068610000742000007769000022
:10719c006c6c00002062000065200000727500001d
:1071ac006e6e0000696e0000672e00002055000016
:1071bc007365000020740000686500002063000007
:1071cc006f6d00006d6100006e64000020420000d5
:1071dc00542b000053540000414e00004442000068
:1071ec0059200000746f00002070000061750000d1
:1071fc0073650000206f0000706500007261000074
:10720c00746900006f6e0000206100006e64000065
:10721c00206100006c6c00006f770000207c000087
:10722c000d0000007c200000646500006275000009
:10723c0067670000696e0000672e000020420000a6
:10724c00542b0000414300005449000056450000f7
:10725c0020770000696c00006c200000746800004e
:10726c00656e00002072000065730000756d0000f3
:10727c006520000074680000652000006d6100004e
:10728c00696e0000206100006e6900006d610000f5
:10729c00746900006f6e0000732e00002020000047
:1072ac0020200000202000002020000020200000d2
:1072bc0020200000202000002020000020200000c2
:1072cc00202000007c0d0000007c0000202000002d
:1072dc0020200000202000002020000020200000a2
:1072ec002020000020200000202000002020000092
:1072fc002020000020200000202000002020000082
:10730c00425400002b50000049580000454c00002e
:10731c003a6e00003d780000204300006f6d0000c5
:10732c006d6100006e64000020480000656c000078
:10733c0070200000202000002020000020200000f1
:10734c002020000020200000202000002020000031
:10735c002020000020200000202000002020000021
:10736c002020000020200000207c00000d000000e8
:10737c007c2000005468000069730000206300004a
:10738c006f6d00006d6100006e64000020610000f4
:10739c006c6c00006f7700007320000075730000a8
:1073ac006572000073200000746f000020650000ff
:1073bc006e610000626c0000652000006f720000be
:1073cc002064000069730000616200006c650000bd
:1073dc0020610000207300007065000063690000ec
:1073ec006669000063200000706900007865000089
:1073fc006c2000006f6e00002074000068650000b7
:10740c00204c0000454400002020000020200000fb
:10741c007c0d0000007c00002067000072690000f9
:10742c00642e0000205400006865000020700000ed
:10743c0069780000656c0000732000006361000037
:10744c006e20000062650000206100007272000076
:10745c00616e00006765000064200000696e00002a
:10746c0020610000206700007269000064200000a9
:10747c0075700000207400006f200000616d00002a
:10748c0061780000696d0000756d000020730000cc
:10749c00697a0000652000006f6600002033000050
:1074ac003278000031360000204c000045440000ca
:1074bc00732e0000207c00000d0000007c200000da
:1074cc00546f000020630000616c000063750000c5
:1074dc006c61000074650000207400006865000099
:1074ec00206c00006f63000061740000696f000085
:1074fc006e2000006f66000020610000207000000c
:10750c0069780000656c0000206900006e200000a6
:10751c006120000067720000696400002c200000ec
:10752c007573000065200000746800006520000081
:10753c00666f00006c6c00006f770000696e0000d5
:10754c00672000006571000075610000746900001f
:10755c006f6e00003a200000202000007c0d00001f
:10756c00007c0000206e0000203d00002031000057
:10757c002d440000696d0000656e00007369000009
:10758c006f6e0000616c00002050000069780000f4
:10759c00656c0000204c00006f63000061740000fb
:1075ac00696f00006e2000002020000020200000e9
:1075bc0020200000202000002020000020200000bf
:1075cc0020200000202000002020000020200000af
:1075dc00202000002020000020200000202000009f
:1075ec00202000002020000020200000202000008f
:1075fc00202000002020000020200000202000007f
:10760c00207c00000d0000007c2000006e2000009b
:10761c003d20000028790000202a000020330000c3
:10762c0032290000202b00002078000020200000d0
:10763c00202000002020000020200000202000003e
:10764c00202000002020000020200000202000002e
:10765c00202000002020000020200000202000001e
:10766c00202000002020000020200000202000000e
:10767c0020200000202000002020000020200000fe
:10768c0020200000202000002020000020200000ee
:10769c0020200000202000002020000020200000de
:1076ac0020200000202000007c0d0000007c000049
:1076bc00204600006f720000206500007861000019
:1076cc006d7000006c6500002c200000746f0000d1
:1076dc0020740000757200006e2000006f6e0000b8
:1076ec0020740000686500002070000069780000bc
:1076fc00656c000020610000742000005028000020
:10770c00362c00003829000020770000652000008e
:10771c00776f0000756c0000642000007772000029
:10772c0069740000653a0000202000002020000051
:10773c00202000002020000020200000202000003d
:10774c00202000002020000020200000207c0000d1
:10775c000d0000007c200000425400002b50000063
:10776c0049580000454c00003a3200003632000007
:10777c003d310000202000002020000020200000cf
:10778c0020200000202000002020000020200000ed
:10779c0020200000202000002020000020200000dd
:1077ac0020200000202000002020000020200000cd
:1077bc0020200000202000002020000020200000bd
:1077cc0020200000202000002020000020200000ad
:1077dc00202000002020000020200000202000009d
:1077ec00202000002020000020200000202000008d
:1077fc00202000007c0d0000007c000020610000b7
:10780c00202700003127000020770000696c000061
:10781c006c20000074750000726e00002061000086
:10782c002070000069780000656c0000206f00007b
:10783c006e200000616e00006420000061200000da
:10784c002730000027200000776900006c6c0000d6
:10785c0020740000757200006e2000006120000092
:10786c0070690000786500006c2000006f660000f5
:10787c00662e0000205400006f200000636f000093
:10788c006e740000726f00006c200000616c0000d0
:10789c006c20000020200000207c00000d00000067
:1078ac007c2000006f6600002074000068650000fa
:1078bc00204c000045440000207000006978000056
